:0A05F0004710006009000000000839
:10028A00E4F513F512F511F510C203C200C202C259
:10029A00011206B87E057F008E4C8F4D7557057585
:1002AA005812754A05754B1C75530575545F755977
:1002BA0005755AA290E680E030E70E854A4E854BD6
:1002CA004F855350855451800C85534E85544F8524
:1002DA004A50854B51EE54E070030203F575140041
:1002EA007515807E057F008E168F17C374EE9FFFEB
:1002FA0074059ECF2402CF3400FEE48F0F8E0EF5D4
:10030A000DF50CF50BF50AF509F508AF0FAE0EADB4
:10031A000DAC0CAB0BAA0AA909A808C31207CF5047
:10032A0026E515250BF582E514350AF58374CDF01B
:10033A00E50B2401F50BE4350AF50AE43509F5095C
:10034A00E43508F50880C4E4F50BF50AF509F50863
:10035A00AF0FAE0EAD0DAC0CAB0BAA0AA909A808DB
:10036A00C31207CF5033E517250BF582E516350A78
:10037A00F583E0FFE515250BF582E514350AF583CB
:10038A00EFF0E50B2401F50BE4350AF50AE435092B
:10039A00F509E43508F50880B785144C85154D74C0
:1003AA00002480FF740534FFFEC3E5589FF558E525
:1003BA00579EF557C3E54F9FF54FE54E9EF54EC341
:1003CA00E5519FF551E5509EF550C3E54B9FF54B1E
:1003DA00E54A9EF54AC3E5549FF554E5539EF55305
:1003EA00C3E55A9FF55AE5599EF559D2E843D820F4
:1003FA0090E668E04409F090E65CE0443DF0D2AF54
:10040A00D204120957538EF8C20330010512008034
:10041A00C2013003291204FE5024C203120A2D20FD
:10042A00001690E682E030E704E020E1EF90E682F1
:10043A00E030E604E020E0E4120986120B14120907
:03044A00B280C7B6
:1000800090E6B9E01207E001EB00023001025603EE
:1000900001640601E50801DF0901D30A01D90B005B
:1000A000AC2001052102822200000276754907C2B8
:1000B000E890E6B57401F0E490E68BF090E6B5F0D8
:1000C000D2E890E68BE0B549F9000000E4F555F57B
:1000D00056C3E55695497480F86555984003020269
:1000E00082AF5674402FF582E434E7F583E0FE7466
:1000F000002FF582E43410F583EEF00556E55670D6
:10010000D0055580CC90E6B57401F0754907E4F54B
:1001100055F556C3E55695497480F86555985024B1
:10012000AF5674002FF582E43410F583E0FE74407E
:100130002FF582E434E7F583EEF00556E55670D3EB
:10014000055580CFE490E68AF000000090E68BE54C
:1001500049F000000090E6A0E020E1F9E490E6B567
:10016000F002028290E6B57401F0120B1640030211
:10017000028290E6BBE024FE602214603324FD601E
:100180001114602224067048E54C90E6B3F0E54D6A
:100190008037E55790E6B3F0E558802DE54E90E6C0
:1001A000B3F0E54F8023E55090E6B3F0E5518019B8
:1001B00090E6BAE0FF1209DDAA06A9077B01EA4929
:1001C0004B600DEE90E6B3F0EF90E6B4F0020282E1
:1001D00002027B120ADB020282120B050202821269
:1001E0000AFD020282120AC9020282120B1840039F
:1001F00002028290E6B8E0247F601A14601F240295
:10020000702CA200E43325E0FFA202E4334F90E714
:1002100040F0E48005E490E740F0A38004E490E738
:1002200041F090E68AF090E68B7402F08054804BA7
:10023000120B1A504D90E6B8E024FE6011240270B3
:100240004190E6BAE0B40104C2008036802D90E609
:10025000BAE0602E8025120B1C502790E6B8E024EF
:10026000FE60112402701B90E6BAE0B40104D200D3
:10027000801080078005120B1E500790E6A0E04416
:0902800001F090E6A0E04480F0DA
:010289002252
:03003300020B0DB0
:040B0D0053D8EF3298
:0204FE00D32207
:020B1400D322EA
:020B1600D322E8
:080AFD0090E6BAE0F552D322A5
:100AC90090E740E552F0E490E68AF090E68B04F076
:020AD900D32226
:080B050090E6BAE0F548D322A6
:100ADB0090E740E548F0E490E68AF090E68B04F06E
:020AEB00D32214
:020B1800D322E6
:020B1A00D322E4
:020B1C00D322E2
:020B1E00D322E0
:10073E000A4D656E75650A312D58696E20436861E4
:10074E006F204B544D54204B36310A322D4B7920AD
:10075E0054687561742047686570204E6F690A335E
:10076E002D434E54540A000A58696E204368616F37
:10077E00204B544D54204B36310A000A4B792054ED
:10078E00687561742047686570204E6F690A000AAB
:06079E00434E54540A0012
:0505FA000341FF073E74
:030B1100020A5283
:0F0AED0012084C8F19E519F46003120B11AF19A1
:010AFC0022D7
:100926008B1C8A1D891E120AEDEF640D6019EF6497
:100936000A6014AB1C051EE51EAA1D7002051D14D7
:10094600F9EF1207BD80DFAB1CAA1DA91EE4020742
:01095600BDE3
:1004D9008B198A1A891BAB19AA1AA91B1207A460BE
:1004E90013051BE51B7002051A14F91207A4FF1264
:0504F9000B1180E2225E
:1008F100120AEDEFF4602DEF24CE600F1460142482
:100901000270187BFF7A07797580167BFF7A077969
:1009110089800E7BFF7A07799D8006AB41AA42A9A7
:04092100431204D9A0
:0109250022AF
:10084C0090E6A1E020E12DC3E5459547E54664809F
:10085C00F8E544648098501674802545F582E4349C
:10086C00E7F583E0FF0545E545700B05442290E66E
:06087C008D7404F07FFF03
:010882002253
:100A5200E5AA30E6FB90FC00EFF0E490E69CF000A3
:0B0A6200000090E69D04F00000002260
:1009B20090E6A2E020E12190E7C0740AF0A374203F
:1009C200F0E4A3F0A3F0A3F0A3F0A3F0A3F0A3F04C
:0B09D200A3F090E68F740AF00208F119
:1006B80075B20375800390E600E054E74410F090AB
:1006C800E601E04440F000000090E60B7403F000FF
:1006D800000090E6047480F00000007408F0000048
:1006E80000E4F000000090E61074A0F00000009014
:1006F800E61174B0F000000090E612747FF000007C
:100708000090E613F000000090E614F0000000905E
:10071800E61574E0F0000000E490E61BF00000002D
:1007280075C83490E65EE04408F043AF01D200900B
:06073800E68D7404F022BE
:100A0800C0E0C083C0825391EF90E65F7408F07530
:100A1800440075450090E68DE0754600F547D082A4
:050A2800D083D0E03294
:100A6D00C0E0C083C082D2015391EF90E65D740166
:080A7D00F0D082D083D0E032FA
:100A9D00C0E0C083C0825391EF90E65D7404F0D046
:060AAD0082D083D0E0328C
:100AB300C0E0C083C0825391EF90E65D7402F0D032
:060AC30082D083D0E03276
:10088300C0E0C083C08290E680E030E70E854A4E28
:10089300854B4F855350855451800C85534E855459
:1008A3004F854A50854B515391EF90E65D7410F09C
:0708B300D082D083D0E032B7
:100A8500C0E0C083C082D2035391EF90E65D740845
:080A9500F0D082D083D0E032E2
:1008BA00C0E0C083C08290E680E030E70E854A4EF1
:1008CA00854B4F855350855451800C85534E855422
:1008DA004F854A50854B515391EF90E65D7420F055
:0708EA00D082D083D0E03280
:010B200032A2
:010B210032A1
:010B220032A0
:010B2300329F
:010B2400329E
:010B2500329D
:010B2600329C
:010B2700329B
:010B2800329A
:010B29003299
:010B2A003298
:010B2B003297
:010B2C003296
:010B2D003295
:010B2E003294
:010B2F003293
:010B30003292
:010B31003291
:010B32003290
:010B3300328F
:010B3400328E
:010B3500328D
:010B3600328C
:010B3700328B
:010B3800328A
:010B39003289
:010B3A003288
:010B3B003287
:010B3C003286
:010B3D003285
:010B3E003284
:010B3F003283
:010B40003282
:010B41003281
:010B42003280
:03004300020600B2
:03005300020600A2
:10060000020A6D00020AB300020A9D00020A850078
:10061000020883000208BA00020B2000020B21002E
:10062000020B2200020B2300020B2400020A080026
:10063000020B2500020B2600020B2700020B2800EC
:10064000020B2900020B2100020B2A00020B2B00D7
:10065000020B2C00020B2D00020B2E00020B2F00B0
:10066000020B3000020B2100020B2100020B2100C3
:10067000020B3100020B3200020B3300020B34007C
:10068000020B3500020B3600020B3700020B38005C
:10069000020B3900020B3A00020B3B00020B3C003C
:1006A000020B3D00020B3E00020B3F00020B40001C
:0806B000020B4100020B4200A5
:1009860090E682E030E004E020E60B90E682E0307C
:10099600E119E030E71590E680E04401F07F147E2F
:0C09A6000012080690E680E054FEF022EB
:1009570030040990E680E0440AF0800790E680E0E2
:100967004408F07FDC7E0512080690E65D74FFF010
:0F09770090E65FF05391EF90E680E054F7F022A6
:0209DD00A90768
:1009DF00AE59AF5A8F828E83A3E064037017AD01B7
:1009EF0019ED7001228F828E83E07C002FFDEC3E8B
:0809FF00FEAF0580DFE4FEFFFE
:010A070022CC
:100A2D0090E682E044C0F090E681F043870100003B
:040A3D000000002293
:100806008E188F1990E600E054187012E51924012D
:10081600FFE43518C313F518EF13F519801590E6A4
:1008260000E05418FFBF100BE51925E0F519E5188F
:1008360033F518E5191519AE18700215184E60052E
:06084600120A4180EE22BF
:100A41007400F58690FDA57C05A3E582458370F9C8
:010A51002282
:100500001201000202000040B4041747000001027B
:1005100000010A0600020000004001000902430039
:10052000020100A0320904000001020201000524BA
:100530000010010424020205240600010524010024
:10054000010705810310000209040100020A0000EE
:1005500000070588020002000705010240000009AB
:10056000024300020100A037090400000102020159
:1005700000052400100104240202052406000105E0
:100580002401000107058103100001090401000294
:100590000A0000000705010240000007058802006C
:1005A0000200040309041003430079007000720084
:1005B000650073007300380345005A002D00550094
:1005C0005300420020004600580032002000560030
:1005D000490052005400550041004C0020004300E7
:1005E0004F004D00200050004F005200540000000A
:0300000002044DAA
:0C044D00787FE4F6D8FD75815A02049413
:1007A400BB010689828A83E0225002E722BBFE0253
:0907B400E32289828A83E4932286
:1007BD00BB010689828A83F0225002F722BBFE011B
:0207CD00F32215
:1007CF00EB9FF5F0EA9E42F0E99D42F0E89C45F080
:0107DF0022F7
:1007E000D083D082F8E4937012740193700DA3A3A8
:1007F00093F8740193C0E0E8C0E02274029368604B
:06080000EFA3A3A380DFBB
:1004590002028AE493A3F8E493A34003F68001F22D
:1004690008DFF48029E493A3F85407240CC8C333A4
:10047900C4540F4420C8834004F456800146F6DF73
:10048900E4800B01020408102040809005F0E47E0E
:10049900019360BCA3FF543F30E509541FFEE49368
:1004A900A360010ECF54C025E060A840B8E493A32F
:1004B900FAE493A3F8E493A3C8C582C8CAC583CA5A
:1004C900F0A3C8C582C8CAC583CADFE9DEE780BE12
:0105FF0000FB
:00000001FF
