:0A05F00047100080250000000008FD
:10029300E4F513F512F511F510C203C200C202C250
:1002A300011204567E057F008E248F25752E057559
:1002B3002F1275220575231C752A05752B5F753062
:1002C300057531A290E680E030E70E85222685236E
:1002D30027852A28852B29800C852A26852B278587
:1002E3002228852329EE54E070030203FE751400CF
:1002F3007515807E057F008E168F17C374EE9FFFE2
:1003030074059ECF2402CF3400FEE48F0F8E0EF5CA
:100313000DF50CF50BF50AF509F508AF0FAE0EADAB
:100323000DAC0CAB0BAA0AA909A808C31209BF504C
:1003330026E515250BF582E514350AF58374CDF012
:10034300E50B2401F50BE4350AF50AE43509F50953
:10035300E43508F50880C4E4F50BF50AF509F5085A
:10036300AF0FAE0EAD0DAC0CAB0BAA0AA909A808D2
:10037300C31209BF5033E517250BF582E516350A7D
:10038300F583E0FFE515250BF582E514350AF583C2
:10039300EFF0E50B2401F50BE4350AF50AE4350922
:1003A300F509E43508F50880B78514248515257407
:1003B300002480FF740534FFFEC3E52F9FF52FE56E
:1003C3002E9EF52EC3E5279FF527E5269EF526C32A
:1003D300E5299FF529E5289EF528C3E5239FF52305
:1003E300E5229EF522C3E52B9FF52BE52A9EF52AF0
:1003F300C3E5319FF531E5309EF530D2E843D8208F
:1004030090E668E04409F090E65CE0443DF0D2AF4A
:10041300D2041209F6538EF8C2033001051200808C
:10042300C2013003291204FE5024C203120AA82079
:10043300001690E682E030E704E020E1EF90E682E8
:10044300E030E604E020E0E4120A511205FB120A50
:030453002580C73A
:1000800090E6B9E01209D001F200023701025E03E6
:10009000016B0601EC0801E60901DA0A01E00B0038
:1000A000AC20010A21028B220000027F752107C2C9
:1000B000E890E6B57401F0E490E68BF090E6B5F0D8
:1000C000D2E890E68BE0B521F9000000E4F52CF5CC
:1000D0002DC3E52D95217480F8652C985026744029
:1000E000252DF58274E7352CF583E0FF7400252D6E
:1000F000F5827410352CF583EFF0052DE52D70D1C8
:10010000052C80CD1206B802028B90E6B57401F082
:10011000752107E4F52CF52DC3E52D95217480F8A4
:10012000652C9850267400252DF5827410352CF519
:1001300083E0FF7440252DF58274E7352CF583EFBD
:10014000F0052DE52D70D1052C80CDE490E68AF0E8
:1001500000000090E68BE521F000000090E6A0E0B2
:1001600020E1F9E490E6B5F002028B90E6B5740167
:10017000F01205FD400302028B90E6BBE024FE6016
:100180002214603324FD601114602224067048E5B7
:100190002490E6B3F0E5258037E52E90E6B3F0E550
:1001A0002F802DE52690E6B3F0E5278023E5289003
:1001B000E6B3F0E529801990E6BAE0FF120A7DAABD
:1001C00006A9077B01EA494B600DEE90E6B3F0EF1C
:1001D00090E6B4F002028B020284120B2302028B1F
:1001E000120B3D02028B120B3502028B120B110215
:1001F000028B120B45400302028B90E6B8E0247F8D
:10020000601A14601F2402702CA200E43325E0FF62
:10021000A202E4334F90E740F0E48005E490E74029
:10022000F0A38004E490E741F090E68AF090E68B3A
:100230007402F08056804D120B47504F90E6B8E0A4
:1002400024FE60122402704390E6BAE06401700458
:10025000C2008037802E90E6BAE0602F8026120B15
:1002600049502890E6B8E024FE60122402701C90E9
:10027000E6BAE064017004D20080108007800512A5
:100280000B4B500790E6A0E04401F090E6A0E0445C
:0202900080F0FC
:010292002249
:030033000204FACA
:0404FA0053D8EF32B2
:030023000207F2DF
:1007F200C0E0C0F0C083C082C0D075D000C000C0CD
:1008020001C002C003C004C005C006C00730983250
:10081200E5AA30E62DC29890FC00E599F090E69C9E
:10082200E4F000000090E69D04F0000000908800D3
:10083200E0F51A631C01E51C451B6006908000E090
:10084200F51A309905C299120867D007D006D0056B
:10085200D004D003D002D001D000D0D0D082D08337
:05086200D0F0D0E032EF
:1008670090E6A1E020E15975B201C3E53D9538E571
:10087700376480F8E53C648098503F7480253DF5E7
:100887008274E7353CF583E0F5997480253DF58260
:1008970074E7353CF583E0F580053DE53D700205DD
:1008A7003C90B800E0F53A634101E54145406010EE
:1008B70090B000E0F53A53A8F72290E68D7404F063
:0108C700220E
:1006B80075985A75C834901000E0FF7E0064607029
:1006C8000FA3E06409700975CBFD75CA9002075F36
:1006D800EF64C04E7010901001E06412700875CB82
:1006E800FE75CAC88071901000E06480700EA3E0A7
:1006F8006425700875CBFF75CA64805B901000E0B4
:10070800FF7E00700EA3E0644B700875CBFF75CABE
:10071800B28044EF64804E7010901001E0647070F5
:100728000875CBFF75CACC802E901000E0700EA320
:10073800E06496700875CBFF75CAD9801A901000CE
:10074800E0700EA3E064E1700875CBFF75CAE6801F
:0E0758000675CAF375CBFF85CBCD85CACC22C2
:1004560090E600E054E74410F090E601E04440F0F6
:1004660000000090E60B7403F000000090E60474B0
:1004760080F00000007408F0000000E4F0000000C6
:1004860090E61074A0F000000090E61174B0F00041
:10049600000090E612747FF000000090E613F00072
:1004A600000090E614F000000090E61574E0F000FD
:1004B6000000E490E61BF000000075C83490E65E8C
:1004C600E04408F043AF01D20090E68D7404F0D208
:0C04D600ACC2BCD299C298D2AF0206B8EA
:100A250090E6A2E020E12490E7C0740AF0A37420C8
:100A3500F0E4A3F0A3F0A3F0A3F0A3F0A37402F0F5
:0C0A4500E4A3F0A3F090E68F740AF02206
:0204FE00D32207
:0205FB00D32209
:0205FD00D32207
:080B350090E6BAE0F53BD32283
:100B110090E740E53BF0E490E68AF090E68B04F044
:020B2100D322DD
:080B3D0090E6BAE0F532D32284
:100B230090E740E532F0E490E68AF090E68B04F03B
:020B3300D322CB
:020B4500D322B9
:020B4700D322B7
:020B4900D322B5
:020B4B00D322B3
:1004E200C0E0C083C082D2015391EF90E65D7401F7
:0804F200F0D082D083D0E0328B
:100AE500C0E0C083C0825391EF90E65D7404F0D0FE
:060AF50082D083D0E03244
:100AFB00C0E0C083C0825391EF90E65D7402F0D0EA
:060B0B0082D083D0E0322D
:10095100C0E0C083C08290E680E030E70E852226A9
:10096100852327852A28852B29800C852A26852BF6
:10097100278522288523295391EF90E65D7410F095
:07098100D082D083D0E032E8
:100ACD00C0E0C083C082D2035391EF90E65D7408FD
:080ADD00F0D082D083D0E0329A
:10098800C0E0C083C08290E680E030E70E85222672
:10099800852327852A28852B29800C852A26852BBF
:1009A800278522288523295391EF90E65D7420F04E
:0709B800D082D083D0E032B1
:0105FF0032C9
:010B4D003275
:010B4E003274
:010B4F003273
:010B50003272
:10090E00C0E0C083C082C0D05391EF90E65F740800
:10091E00F02099FD753C00753D0090E68DE0753731
:10092E0000F5387480253DF58274E7353CF583E09B
:10093E00F599053DE53D7002053CD0D0D082D083BF
:03094E00D0E032C4
:010B51003271
:010B52003270
:010B5300326F
:010B5400326E
:010B5500326D
:010B5600326C
:010B5700326B
:010B5800326A
:010B59003269
:010B5A003268
:010B5B003267
:010B5C003266
:010B5D003265
:010B5E003264
:010B5F003263
:010B60003262
:010B61003261
:010B62003260
:010B6300325F
:010B6400325E
:010B6500325D
:010B6600325C
:010B6700325B
:010B6800325A
:010B69003259
:010B6A003258
:010B6B003257
:010B6C003256
:010B6D003255
:010B6E003254
:03004300020600B2
:03005300020600A2
:100600000204E200020AFB00020AE500020ACD0031
:1006100002095100020988000205FF00020B4D008B
:10062000020B4E00020B4F00020B500002090E009D
:10063000020B5100020B5200020B5300020B54003C
:10064000020B5500020B4D00020B5600020B570027
:10065000020B5800020B5900020B5A00020B5B0000
:10066000020B5C00020B4D00020B4D00020B4D0013
:10067000020B5D00020B5E00020B5F00020B6000CC
:10068000020B6100020B6200020B6300020B6400AC
:10069000020B6500020B6600020B6700020B68008C
:1006A000020B6900020B6A00020B6B00020B6C006C
:0806B000020B6D00020B6E004D
:100A510090E682E030E004E020E60B90E682E030B0
:100A6100E119E030E71590E680E04401F07F147E63
:0C0A7100001208C890E680E054FEF0225D
:1009F60030040990E680E0440AF0800790E680E043
:100A06004408F07FDC7E051208C890E65D74FFF0AE
:0F0A160090E65FF05391EF90E680E054F7F02206
:020A7D00A907C7
:100A7F00AE30AF318F828E83A3E064037017AD0168
:100A8F0019ED7001228F828E83E07C002FFDEC3EEA
:080A9F00FEAF0580DFE4FEFF5D
:010AA700222C
:100AA80090E682E044C0F090E681F04387010000C0
:040AB8000000002218
:1008C8008E188F1990E600E054187012E51924016B
:1008D800FFE43518C313F518EF13F519801590E6E2
:1008E80000E05418FFBF100BE51925E0F519E518CD
:1008F80033F518E5191519AE18700215184E60056C
:06090800120ABC80EE2281
:100ABC007400F58690FDA57C05A3E582458370F94D
:010ACC002207
:100500001201000202000040B4041747000001027B
:1005100000010A0600020000004001000902430039
:10052000020100A0320904000001020201000524BA
:100530000010010424020205240600010524010024
:10054000010705810310000209040100020A0000EE
:1005500000070588020002000705010240000009AB
:10056000024300020100A037090400000102020159
:1005700000052400100104240202052406000105E0
:100580002401000107058103100001090401000294
:100590000A0000000705010240000007058802006C
:1005A0000200040309041003430079007000720084
:1005B000650073007300380345005A002D00550094
:1005C0005300420020004600580032002000560030
:1005D000490052005400550041004C0020004300E7
:1005E0004F004D00200050004F005200540000000A
:030000000207668E
:0C076600787FE4F6D8FD7581410207ADF4
:1009BF00EB9FF5F0EA9E42F0E99D42F0E89C45F08E
:0109CF002205
:1009D000D083D082F8E4937012740193700DA3A3B6
:1009E00093F8740193F5828883E4737402936860CA
:0609F000EFA3A3A380DFCA
:10077200020293E493A3F8E493A34003F68001F208
:1007820008DFF48029E493A3F85407240CC8C33388
:10079200C4540F4420C8834004F456800146F6DF57
:1007A200E4800B01020408102040809005F0E47EF2
:1007B200019360BCA3FF543F30E509541FFEE4934C
:1007C200A360010ECF54C025E060A840B8E493A313
:1007D200FAE493A3F8E493A3C8C582C8CAC583CA3E
:1007E200F0A3C8C582C8CAC583CADFE9DEE780BEF6
:0105FA000000
:00000001FF
